{
  "_format": "hh-sol-artifact-1",
  "contractName": "Repayment",
  "sourceName": "contracts/Repayment.sol",
  "abi": [
    {
      "inputs": [
        {
          "internalType": "address",
          "name": "_stNearTokenAddress",
          "type": "address"
        },
        {
          "internalType": "uint256",
          "name": "_approvalThreshold",
          "type": "uint256"
        },
        {
          "internalType": "uint256",
          "name": "_voteFee",
          "type": "uint256"
        }
      ],
      "stateMutability": "nonpayable",
      "type": "constructor"
    },
    {
      "inputs": [],
      "name": "approvalThreshold",
      "outputs": [
        {
          "internalType": "uint256",
          "name": "",
          "type": "uint256"
        }
      ],
      "stateMutability": "view",
      "type": "function"
    },
    {
      "inputs": [],
      "name": "currentSession",
      "outputs": [
        {
          "internalType": "uint256",
          "name": "",
          "type": "uint256"
        }
      ],
      "stateMutability": "view",
      "type": "function"
    },
    {
      "inputs": [],
      "name": "currentSessionForRepay",
      "outputs": [
        {
          "internalType": "uint256",
          "name": "",
          "type": "uint256"
        }
      ],
      "stateMutability": "view",
      "type": "function"
    },
    {
      "inputs": [],
      "name": "getCurrentRepaymentVote",
      "outputs": [
        {
          "internalType": "address",
          "name": "",
          "type": "address"
        },
        {
          "internalType": "string",
          "name": "",
          "type": "string"
        },
        {
          "internalType": "uint256",
          "name": "",
          "type": "uint256"
        },
        {
          "internalType": "uint256",
          "name": "",
          "type": "uint256"
        }
      ],
      "stateMutability": "view",
      "type": "function"
    },
    {
      "inputs": [],
      "name": "hasActiveRepayVote",
      "outputs": [
        {
          "internalType": "bool",
          "name": "",
          "type": "bool"
        }
      ],
      "stateMutability": "view",
      "type": "function"
    },
    {
      "inputs": [
        {
          "internalType": "uint256",
          "name": "",
          "type": "uint256"
        },
        {
          "internalType": "address",
          "name": "",
          "type": "address"
        }
      ],
      "name": "hasVotedForRepay",
      "outputs": [
        {
          "internalType": "bool",
          "name": "",
          "type": "bool"
        }
      ],
      "stateMutability": "view",
      "type": "function"
    },
    {
      "inputs": [
        {
          "internalType": "uint256",
          "name": "",
          "type": "uint256"
        }
      ],
      "name": "repay",
      "outputs": [
        {
          "internalType": "address",
          "name": "insuranceContractAddress",
          "type": "address"
        },
        {
          "internalType": "string",
          "name": "reason",
          "type": "string"
        },
        {
          "internalType": "uint256",
          "name": "totalVotes",
          "type": "uint256"
        },
        {
          "internalType": "uint256",
          "name": "positiveVotes",
          "type": "uint256"
        },
        {
          "internalType": "bool",
          "name": "votingCompleted",
          "type": "bool"
        }
      ],
      "stateMutability": "view",
      "type": "function"
    },
    {
      "inputs": [
        {
          "internalType": "uint256",
          "name": "",
          "type": "uint256"
        }
      ],
      "name": "repayQueue",
      "outputs": [
        {
          "internalType": "address",
          "name": "insuranceContractAddress",
          "type": "address"
        },
        {
          "internalType": "string",
          "name": "reason",
          "type": "string"
        }
      ],
      "stateMutability": "view",
      "type": "function"
    },
    {
      "inputs": [
        {
          "internalType": "address",
          "name": "contractAddress",
          "type": "address"
        },
        {
          "internalType": "string",
          "name": "reason",
          "type": "string"
        }
      ],
      "name": "requestPayment",
      "outputs": [],
      "stateMutability": "nonpayable",
      "type": "function"
    },
    {
      "inputs": [],
      "name": "stNear",
      "outputs": [
        {
          "internalType": "contract IERC20",
          "name": "",
          "type": "address"
        }
      ],
      "stateMutability": "view",
      "type": "function"
    },
    {
      "inputs": [],
      "name": "stNearTokenAddress",
      "outputs": [
        {
          "internalType": "address",
          "name": "",
          "type": "address"
        }
      ],
      "stateMutability": "view",
      "type": "function"
    },
    {
      "inputs": [
        {
          "internalType": "bool",
          "name": "_approval",
          "type": "bool"
        }
      ],
      "name": "vote",
      "outputs": [],
      "stateMutability": "nonpayable",
      "type": "function"
    },
    {
      "inputs": [],
      "name": "voteFee",
      "outputs": [
        {
          "internalType": "uint256",
          "name": "",
          "type": "uint256"
        }
      ],
      "stateMutability": "view",
      "type": "function"
    }
  ],
  "bytecode": "0x60806040523480156200001157600080fd5b5060405162001e7e38038062001e7e83398181016040528101906200003791906200017d565b6001600781905550816008819055508060098190555082600560006101000a81548173ffffffffffffffffffffffffffffffffffffffff021916908373ffffffffffffffffffffffffffffffffffffffff16021790555082600660006101000a81548173ffffffffffffffffffffffffffffffffffffffff021916908373ffffffffffffffffffffffffffffffffffffffff160217905550505050620001d9565b600080fd5b600073ffffffffffffffffffffffffffffffffffffffff82169050919050565b60006200010a82620000dd565b9050919050565b6200011c81620000fd565b81146200012857600080fd5b50565b6000815190506200013c8162000111565b92915050565b6000819050919050565b620001578162000142565b81146200016357600080fd5b50565b60008151905062000177816200014c565b92915050565b600080600060608486031215620001995762000198620000d8565b5b6000620001a9868287016200012b565b9350506020620001bc8682870162000166565b9250506040620001cf8682870162000166565b9150509250925092565b611c9580620001e96000396000f3fe608060405234801561001057600080fd5b50600436106100cf5760003560e01c80637d0eef611161008c578063cd6f641411610066578063cd6f64141461021c578063d41667631461023a578063da2b4c1e14610258578063fbe43e8514610276576100cf565b80637d0eef611461019d5780638d540894146101bb578063b7775c43146101eb576100cf565b8063045396eb146100d4578063206dd2d0146100f05780632c48f9151461010e5780632ebf855f1461012f578063371fd8e61461014d5780634b9f5c9814610181575b600080fd5b6100ee60048036038101906100e991906110a4565b610294565b005b6100f861044f565b6040516101059190611113565b60405180910390f35b610116610475565b60405161012694939291906111d7565b60405180910390f35b6101376105d5565b6040516101449190611223565b60405180910390f35b6101676004803603810190610162919061126a565b6105db565b6040516101789594939291906112b2565b60405180910390f35b61019b60048036038101906101969190611338565b6106d6565b005b6101a5610ad7565b6040516101b29190611223565b60405180910390f35b6101d560048036038101906101d09190611365565b610add565b6040516101e291906113a5565b60405180910390f35b6102056004803603810190610200919061126a565b610b0c565b6040516102139291906113c0565b60405180910390f35b610224610be8565b60405161023191906113a5565b60405180910390f35b610242610bfb565b60405161024f9190611223565b60405180910390f35b610260610c01565b60405161026d9190611223565b60405180910390f35b61027e610c07565b60405161028b919061144f565b60405180910390f35b60036000600754815260200190815260200160002060003373ffffffffffffffffffffffffffffffffffffffff1673ffffffffffffffffffffffffffffffffffffffff16815260200190815260200160002060009054906101000a900460ff1615610334576040517f08c379a000000000000000000000000000000000000000000000000000000000815260040161032b906114b6565b60405180910390fd5b600460405180604001604052808573ffffffffffffffffffffffffffffffffffffffff16815260200184848080601f016020809104026020016040519081016040528093929190818152602001838380828437600081840152601f19601f82011690508083019250505050505050815250908060018154018082558091505060019003906000526020600020906002020160009091909190915060008201518160000160006101000a81548173ffffffffffffffffffffffffffffffffffffffff021916908373ffffffffffffffffffffffffffffffffffffffff160217905550602082015181600101908161042a9190611707565b505050600260009054906101000a900460ff1661044a57610449610c2d565b5b505050565b600560009054906101000a900473ffffffffffffffffffffffffffffffffffffffff1681565b60006060600080600260009054906101000a900460ff166104cb576040517f08c379a00000000000000000000000000000000000000000000000000000000081526004016104c290611825565b60405180910390fd5b6000600180805490506104de9190611874565b90506000600182815481106104f6576104f56118a8565b5b906000526020600020906005020190508060000160009054906101000a900473ffffffffffffffffffffffffffffffffffffffff16816001018260020154836003015482805461054590611534565b80601f016020809104026020016040519081016040528092919081815260200182805461057190611534565b80156105be5780601f10610593576101008083540402835291602001916105be565b820191906000526020600020905b8154815290600101906020018083116105a157829003601f168201915b505050505092509550955095509550505090919293565b60005481565b600181815481106105eb57600080fd5b90600052602060002090600502016000915090508060000160009054906101000a900473ffffffffffffffffffffffffffffffffffffffff169080600101805461063490611534565b80601f016020809104026020016040519081016040528092919081815260200182805461066090611534565b80156106ad5780601f10610682576101008083540402835291602001916106ad565b820191906000526020600020905b81548152906001019060200180831161069057829003601f168201915b5050505050908060020154908060030154908060040160009054906101000a900460ff16905085565b600260009054906101000a900460ff16610725576040517f08c379a000000000000000000000000000000000000000000000000000000000815260040161071c90611923565b60405180910390fd5b60036000600754815260200190815260200160002060003373ffffffffffffffffffffffffffffffffffffffff1673ffffffffffffffffffffffffffffffffffffffff16815260200190815260200160002060009054906101000a900460ff16156107c5576040517f08c379a00000000000000000000000000000000000000000000000000000000081526004016107bc906114b6565b60405180910390fd5b600954600660009054906101000a900473ffffffffffffffffffffffffffffffffffffffff1673ffffffffffffffffffffffffffffffffffffffff166370a08231336040518263ffffffff1660e01b81526004016108239190611113565b602060405180830381865afa158015610840573d6000803e3d6000fd5b505050506040513d601f19601f820116820180604052508101906108649190611958565b10156108a5576040517f08c379a000000000000000000000000000000000000000000000000000000000815260040161089c906119f7565b60405180910390fd5b600660009054906101000a900473ffffffffffffffffffffffffffffffffffffffff1673ffffffffffffffffffffffffffffffffffffffff166323b872dd33306009546040518463ffffffff1660e01b815260040161090693929190611a17565b6020604051808303816000875af1158015610925573d6000803e3d6000fd5b505050506040513d601f19601f820116820180604052508101906109499190611a63565b5060006001808054905061095d9190611874565b9050600060018281548110610975576109746118a8565b5b90600052602060002090600502019050600181600201600082825461099a9190611a90565b925050819055506008548160030154111580156109b45750825b156109d65760018160030160008282546109ce9190611a90565b925050819055505b60085481600301541180156109fa57508060040160009054906101000a900460ff16155b15610a675760018160040160006101000a81548160ff0219169083151502179055506000600260006101000a81548160ff02191690831515021790555060076000815480929190610a4a90611ac4565b919050555060006004805490501115610a6657610a65610c2d565b5b5b600160036000600754815260200190815260200160002060003373ffffffffffffffffffffffffffffffffffffffff1673ffffffffffffffffffffffffffffffffffffffff16815260200190815260200160002060006101000a81548160ff021916908315150217905550505050565b60085481565b60036020528160005260406000206020528060005260406000206000915091509054906101000a900460ff1681565b60048181548110610b1c57600080fd5b90600052602060002090600202016000915090508060000160009054906101000a900473ffffffffffffffffffffffffffffffffffffffff1690806001018054610b6590611534565b80601f0160208091040260200160405190810160405280929190818152602001828054610b9190611534565b8015610bde5780601f10610bb357610100808354040283529160200191610bde565b820191906000526020600020905b815481529060010190602001808311610bc157829003601f168201915b5050505050905082565b600260009054906101000a900460ff1681565b60075481565b60095481565b600660009054906101000a900473ffffffffffffffffffffffffffffffffffffffff1681565b600260009054906101000a900460ff1615610c7d576040517f08c379a0000000000000000000000000000000000000000000000000000000008152600401610c7490611ba4565b60405180910390fd5b600060048054905011610cc5576040517f08c379a0000000000000000000000000000000000000000000000000000000008152600401610cbc90611c10565b60405180910390fd5b60006004600081548110610cdc57610cdb6118a8565b5b90600052602060002090600202019050610da68160000160009054906101000a900473ffffffffffffffffffffffffffffffffffffffff16826001018054610d2390611534565b80601f0160208091040260200160405190810160405280929190818152602001828054610d4f90611534565b8015610d9c5780601f10610d7157610100808354040283529160200191610d9c565b820191906000526020600020905b815481529060010190602001808311610d7f57829003601f168201915b5050505050610e0b565b6004805480610db857610db7611c30565b5b6001900381819060005260206000209060020201600080820160006101000a81549073ffffffffffffffffffffffffffffffffffffffff0219169055600182016000610e049190610f7a565b5050905550565b600260009054906101000a900460ff1615610e5b576040517f08c379a0000000000000000000000000000000000000000000000000000000008152600401610e5290611923565b60405180910390fd5b60016040518060a001604052808473ffffffffffffffffffffffffffffffffffffffff168152602001838152602001600081526020016000815260200160001515815250908060018154018082558091505060019003906000526020600020906005020160009091909190915060008201518160000160006101000a81548173ffffffffffffffffffffffffffffffffffffffff021916908373ffffffffffffffffffffffffffffffffffffffff1602179055506020820151816001019081610f249190611707565b50604082015181600201556060820151816003015560808201518160040160006101000a81548160ff02191690831515021790555050506001600260006101000a81548160ff0219169083151502179055505050565b508054610f8690611534565b6000825580601f10610f985750610fb7565b601f016020900490600052602060002090810190610fb69190610fba565b5b50565b5b80821115610fd3576000816000905550600101610fbb565b5090565b600080fd5b600080fd5b600073ffffffffffffffffffffffffffffffffffffffff82169050919050565b600061100c82610fe1565b9050919050565b61101c81611001565b811461102757600080fd5b50565b60008135905061103981611013565b92915050565b600080fd5b600080fd5b600080fd5b60008083601f8401126110645761106361103f565b5b8235905067ffffffffffffffff81111561108157611080611044565b5b60208301915083600182028301111561109d5761109c611049565b5b9250929050565b6000806000604084860312156110bd576110bc610fd7565b5b60006110cb8682870161102a565b935050602084013567ffffffffffffffff8111156110ec576110eb610fdc565b5b6110f88682870161104e565b92509250509250925092565b61110d81611001565b82525050565b60006020820190506111286000830184611104565b92915050565b600081519050919050565b600082825260208201905092915050565b60005b8381101561116857808201518184015260208101905061114d565b60008484015250505050565b6000601f19601f8301169050919050565b60006111908261112e565b61119a8185611139565b93506111aa81856020860161114a565b6111b381611174565b840191505092915050565b6000819050919050565b6111d1816111be565b82525050565b60006080820190506111ec6000830187611104565b81810360208301526111fe8186611185565b905061120d60408301856111c8565b61121a60608301846111c8565b95945050505050565b600060208201905061123860008301846111c8565b92915050565b611247816111be565b811461125257600080fd5b50565b6000813590506112648161123e565b92915050565b6000602082840312156112805761127f610fd7565b5b600061128e84828501611255565b91505092915050565b60008115159050919050565b6112ac81611297565b82525050565b600060a0820190506112c76000830188611104565b81810360208301526112d98187611185565b90506112e860408301866111c8565b6112f560608301856111c8565b61130260808301846112a3565b9695505050505050565b61131581611297565b811461132057600080fd5b50565b6000813590506113328161130c565b92915050565b60006020828403121561134e5761134d610fd7565b5b600061135c84828501611323565b91505092915050565b6000806040838503121561137c5761137b610fd7565b5b600061138a85828601611255565b925050602061139b8582860161102a565b9150509250929050565b60006020820190506113ba60008301846112a3565b92915050565b60006040820190506113d56000830185611104565b81810360208301526113e78184611185565b90509392505050565b6000819050919050565b600061141561141061140b84610fe1565b6113f0565b610fe1565b9050919050565b6000611427826113fa565b9050919050565b60006114398261141c565b9050919050565b6114498161142e565b82525050565b60006020820190506114646000830184611440565b92915050565b7f596f75206861766520616c726561647920766f7465642e000000000000000000600082015250565b60006114a0601783611139565b91506114ab8261146a565b602082019050919050565b600060208201905081810360008301526114cf81611493565b9050919050565b7f4e487b7100000000000000000000000000000000000000000000000000000000600052604160045260246000fd5b7f4e487b7100000000000000000000000000000000000000000000000000000000600052602260045260246000fd5b6000600282049050600182168061154c57607f821691505b60208210810361155f5761155e611505565b5b50919050565b60008190508160005260206000209050919050565b60006020601f8301049050919050565b600082821b905092915050565b6000600883026115c77fffffffffffffffffffffffffffffffffffffffffffffffffffffffffffffffff8261158a565b6115d1868361158a565b95508019841693508086168417925050509392505050565b60006116046115ff6115fa846111be565b6113f0565b6111be565b9050919050565b6000819050919050565b61161e836115e9565b61163261162a8261160b565b848454611597565b825550505050565b600090565b61164761163a565b611652818484611615565b505050565b5b818110156116765761166b60008261163f565b600181019050611658565b5050565b601f8211156116bb5761168c81611565565b6116958461157a565b810160208510156116a4578190505b6116b86116b08561157a565b830182611657565b50505b505050565b600082821c905092915050565b60006116de600019846008026116c0565b1980831691505092915050565b60006116f783836116cd565b9150826002028217905092915050565b6117108261112e565b67ffffffffffffffff811115611729576117286114d6565b5b6117338254611534565b61173e82828561167a565b600060209050601f831160018114611771576000841561175f578287015190505b61176985826116eb565b8655506117d1565b601f19841661177f86611565565b60005b828110156117a757848901518255600182019150602085019450602081019050611782565b868310156117c457848901516117c0601f8916826116cd565b8355505b6001600288020188555050505b505050505050565b7f5468657265206973206e6f2061637469766520726570617920766f74652e0000600082015250565b600061180f601e83611139565b915061181a826117d9565b602082019050919050565b6000602082019050818103600083015261183e81611802565b9050919050565b7f4e487b7100000000000000000000000000000000000000000000000000000000600052601160045260246000fd5b600061187f826111be565b915061188a836111be565b92508282039050818111156118a2576118a1611845565b5b92915050565b7f4e487b7100000000000000000000000000000000000000000000000000000000600052603260045260246000fd5b7f546865726520697320616e2061637469766520726570617920766f74652e0000600082015250565b600061190d601e83611139565b9150611918826118d7565b602082019050919050565b6000602082019050818103600083015261193c81611900565b9050919050565b6000815190506119528161123e565b92915050565b60006020828403121561196e5761196d610fd7565b5b600061197c84828501611943565b91505092915050565b7f496e73756666696369656e742073744e4541522062616c616e636520666f722060008201527f766f74696e672e00000000000000000000000000000000000000000000000000602082015250565b60006119e1602783611139565b91506119ec82611985565b604082019050919050565b60006020820190508181036000830152611a10816119d4565b9050919050565b6000606082019050611a2c6000830186611104565b611a396020830185611104565b611a4660408301846111c8565b949350505050565b600081519050611a5d8161130c565b92915050565b600060208284031215611a7957611a78610fd7565b5b6000611a8784828501611a4e565b91505092915050565b6000611a9b826111be565b9150611aa6836111be565b9250828201905080821115611abe57611abd611845565b5b92915050565b6000611acf826111be565b91507fffffffffffffffffffffffffffffffffffffffffffffffffffffffffffffffff8203611b0157611b00611845565b5b600182019050919050565b7f546865726520697320616e2061637469766520766f74652e20506c656173652060008201527f7761697420666f72207468652063757272656e7420766f746520746f20636f6d60208201527f706c6574652e0000000000000000000000000000000000000000000000000000604082015250565b6000611b8e604683611139565b9150611b9982611b0c565b606082019050919050565b60006020820190508181036000830152611bbd81611b81565b9050919050565b7f566f74696e6720717565756520697320656d7074792e00000000000000000000600082015250565b6000611bfa601683611139565b9150611c0582611bc4565b602082019050919050565b60006020820190508181036000830152611c2981611bed565b9050919050565b7f4e487b7100000000000000000000000000000000000000000000000000000000600052603160045260246000fdfea2646970667358221220058049d5e5dd27c36431e1ebb35381507f5e65ed47b37b08b22bb999d56e379c64736f6c63430008130033",
  "linkReferences": {},
  "deployedLinkReferences": {}
}