{
  "_format": "hh-sol-artifact-1",
  "contractName": "SolInsurance",
  "sourceName": "contracts/SolInsurance.sol",
  "abi": [
    {
      "inputs": [
        {
          "internalType": "address",
          "name": "_owner",
          "type": "address"
        },
        {
          "internalType": "uint256",
          "name": "_assetValue",
          "type": "uint256"
        },
        {
          "internalType": "address",
          "name": "_repaymentAddress",
          "type": "address"
        },
        {
          "internalType": "address",
          "name": "_stNearTokenAddress",
          "type": "address"
        }
      ],
      "stateMutability": "nonpayable",
      "type": "constructor"
    },
    {
      "inputs": [],
      "name": "assetValue",
      "outputs": [
        {
          "internalType": "uint256",
          "name": "",
          "type": "uint256"
        }
      ],
      "stateMutability": "view",
      "type": "function"
    },
    {
      "inputs": [],
      "name": "owner",
      "outputs": [
        {
          "internalType": "address",
          "name": "",
          "type": "address"
        }
      ],
      "stateMutability": "view",
      "type": "function"
    },
    {
      "inputs": [
        {
          "internalType": "address",
          "name": "userWallet",
          "type": "address"
        }
      ],
      "name": "repay",
      "outputs": [],
      "stateMutability": "nonpayable",
      "type": "function"
    },
    {
      "inputs": [],
      "name": "repaymentAddress",
      "outputs": [
        {
          "internalType": "address",
          "name": "",
          "type": "address"
        }
      ],
      "stateMutability": "view",
      "type": "function"
    },
    {
      "inputs": [],
      "name": "stNear",
      "outputs": [
        {
          "internalType": "contract IERC20",
          "name": "",
          "type": "address"
        }
      ],
      "stateMutability": "view",
      "type": "function"
    },
    {
      "inputs": [],
      "name": "stNearTokenAddress",
      "outputs": [
        {
          "internalType": "address",
          "name": "",
          "type": "address"
        }
      ],
      "stateMutability": "view",
      "type": "function"
    }
  ],
  "bytecode": "0x608060405234801561001057600080fd5b50604051610821380380610821833981810160405281019061003291906101df565b83600160006101000a81548173ffffffffffffffffffffffffffffffffffffffff021916908373ffffffffffffffffffffffffffffffffffffffff1602179055508260038190555081600260006101000a81548173ffffffffffffffffffffffffffffffffffffffff021916908373ffffffffffffffffffffffffffffffffffffffff16021790555080600460006101000a81548173ffffffffffffffffffffffffffffffffffffffff021916908373ffffffffffffffffffffffffffffffffffffffff16021790555080600560006101000a81548173ffffffffffffffffffffffffffffffffffffffff021916908373ffffffffffffffffffffffffffffffffffffffff16021790555050505050610246565b600080fd5b600073ffffffffffffffffffffffffffffffffffffffff82169050919050565b60006101768261014b565b9050919050565b6101868161016b565b811461019157600080fd5b50565b6000815190506101a38161017d565b92915050565b6000819050919050565b6101bc816101a9565b81146101c757600080fd5b50565b6000815190506101d9816101b3565b92915050565b600080600080608085870312156101f9576101f8610146565b5b600061020787828801610194565b9450506020610218878288016101ca565b935050604061022987828801610194565b925050606061023a87828801610194565b91505092959194509250565b6105cc806102556000396000f3fe608060405234801561001057600080fd5b50600436106100625760003560e01c8063206dd2d014610067578063255be390146100855780638da5cb5b146100a35780639f7c73e9146100c1578063a71891c3146100dd578063fbe43e85146100fb575b600080fd5b61006f610119565b60405161007c9190610330565b60405180910390f35b61008d61013f565b60405161009a9190610330565b60405180910390f35b6100ab610165565b6040516100b89190610330565b60405180910390f35b6100db60048036038101906100d6919061037c565b61018b565b005b6100e56102c3565b6040516100f291906103c2565b60405180910390f35b6101036102c9565b604051610110919061043c565b60405180910390f35b600460009054906101000a900473ffffffffffffffffffffffffffffffffffffffff1681565b600260009054906101000a900473ffffffffffffffffffffffffffffffffffffffff1681565b600160009054906101000a900473ffffffffffffffffffffffffffffffffffffffff1681565b600260009054906101000a900473ffffffffffffffffffffffffffffffffffffffff1673ffffffffffffffffffffffffffffffffffffffff163373ffffffffffffffffffffffffffffffffffffffff161461021b576040517f08c379a0000000000000000000000000000000000000000000000000000000008152600401610212906104da565b60405180910390fd5b600560009054906101000a900473ffffffffffffffffffffffffffffffffffffffff1673ffffffffffffffffffffffffffffffffffffffff166323b872dd30836003546040518463ffffffff1660e01b815260040161027c939291906104fa565b6020604051808303816000875af115801561029b573d6000803e3d6000fd5b505050506040513d601f19601f820116820180604052508101906102bf9190610569565b5050565b60035481565b600560009054906101000a900473ffffffffffffffffffffffffffffffffffffffff1681565b600073ffffffffffffffffffffffffffffffffffffffff82169050919050565b600061031a826102ef565b9050919050565b61032a8161030f565b82525050565b60006020820190506103456000830184610321565b92915050565b600080fd5b6103598161030f565b811461036457600080fd5b50565b60008135905061037681610350565b92915050565b6000602082840312156103925761039161034b565b5b60006103a084828501610367565b91505092915050565b6000819050919050565b6103bc816103a9565b82525050565b60006020820190506103d760008301846103b3565b92915050565b6000819050919050565b60006104026103fd6103f8846102ef565b6103dd565b6102ef565b9050919050565b6000610414826103e7565b9050919050565b600061042682610409565b9050919050565b6104368161041b565b82525050565b6000602082019050610451600083018461042d565b92915050565b600082825260208201905092915050565b7f4f6e6c792072657061796d656e7420636f6e74726163742063616e2063616c6c60008201527f20746869732066756e6374696f6e000000000000000000000000000000000000602082015250565b60006104c4602e83610457565b91506104cf82610468565b604082019050919050565b600060208201905081810360008301526104f3816104b7565b9050919050565b600060608201905061050f6000830186610321565b61051c6020830185610321565b61052960408301846103b3565b949350505050565b60008115159050919050565b61054681610531565b811461055157600080fd5b50565b6000815190506105638161053d565b92915050565b60006020828403121561057f5761057e61034b565b5b600061058d84828501610554565b9150509291505056fea264697066735822122092be1afba3a581d49dec459216b8febec170ea1425b9da8cba5b7cb7cc27a7b564736f6c63430008130033",
  "linkReferences": {},
  "deployedLinkReferences": {}
}