{
  "_format": "hh-sol-artifact-1",
  "contractName": "Voting",
  "sourceName": "contracts/Voting.sol",
  "abi": [
    {
      "inputs": [
        {
          "internalType": "address",
          "name": "_stNearTokenAddress",
          "type": "address"
        },
        {
          "internalType": "uint256",
          "name": "_approvalThreshold",
          "type": "uint256"
        },
        {
          "internalType": "uint256",
          "name": "_voteFee",
          "type": "uint256"
        }
      ],
      "stateMutability": "nonpayable",
      "type": "constructor"
    },
    {
      "inputs": [],
      "name": "approvalThreshold",
      "outputs": [
        {
          "internalType": "uint256",
          "name": "",
          "type": "uint256"
        }
      ],
      "stateMutability": "view",
      "type": "function"
    },
    {
      "inputs": [],
      "name": "currentSession",
      "outputs": [
        {
          "internalType": "uint256",
          "name": "",
          "type": "uint256"
        }
      ],
      "stateMutability": "view",
      "type": "function"
    },
    {
      "inputs": [],
      "name": "getCurrentVoteSession",
      "outputs": [
        {
          "components": [
            {
              "internalType": "address",
              "name": "ownerWallet",
              "type": "address"
            },
            {
              "internalType": "uint256",
              "name": "assetValue",
              "type": "uint256"
            }
          ],
          "internalType": "struct Voting.Asset",
          "name": "",
          "type": "tuple"
        },
        {
          "internalType": "uint256",
          "name": "",
          "type": "uint256"
        },
        {
          "internalType": "uint256",
          "name": "",
          "type": "uint256"
        }
      ],
      "stateMutability": "view",
      "type": "function"
    },
    {
      "inputs": [],
      "name": "hasActiveVote",
      "outputs": [
        {
          "internalType": "bool",
          "name": "",
          "type": "bool"
        }
      ],
      "stateMutability": "view",
      "type": "function"
    },
    {
      "inputs": [
        {
          "internalType": "uint256",
          "name": "",
          "type": "uint256"
        },
        {
          "internalType": "address",
          "name": "",
          "type": "address"
        }
      ],
      "name": "hasVoted",
      "outputs": [
        {
          "internalType": "bool",
          "name": "",
          "type": "bool"
        }
      ],
      "stateMutability": "view",
      "type": "function"
    },
    {
      "inputs": [],
      "name": "repaymentContractAddress",
      "outputs": [
        {
          "internalType": "address",
          "name": "",
          "type": "address"
        }
      ],
      "stateMutability": "view",
      "type": "function"
    },
    {
      "inputs": [
        {
          "internalType": "address",
          "name": "userWallet",
          "type": "address"
        },
        {
          "internalType": "uint256",
          "name": "assetValue",
          "type": "uint256"
        }
      ],
      "name": "requestVote",
      "outputs": [],
      "stateMutability": "nonpayable",
      "type": "function"
    },
    {
      "inputs": [
        {
          "internalType": "address",
          "name": "_repaymentContractAddress",
          "type": "address"
        }
      ],
      "name": "setRepaymentContractAddress",
      "outputs": [],
      "stateMutability": "nonpayable",
      "type": "function"
    },
    {
      "inputs": [],
      "name": "stNear",
      "outputs": [
        {
          "internalType": "contract IERC20",
          "name": "",
          "type": "address"
        }
      ],
      "stateMutability": "view",
      "type": "function"
    },
    {
      "inputs": [],
      "name": "stNearTokenAddress",
      "outputs": [
        {
          "internalType": "address",
          "name": "",
          "type": "address"
        }
      ],
      "stateMutability": "view",
      "type": "function"
    },
    {
      "inputs": [
        {
          "internalType": "bool",
          "name": "_approval",
          "type": "bool"
        }
      ],
      "name": "vote",
      "outputs": [],
      "stateMutability": "nonpayable",
      "type": "function"
    },
    {
      "inputs": [],
      "name": "voteFee",
      "outputs": [
        {
          "internalType": "uint256",
          "name": "",
          "type": "uint256"
        }
      ],
      "stateMutability": "view",
      "type": "function"
    },
    {
      "inputs": [
        {
          "internalType": "uint256",
          "name": "",
          "type": "uint256"
        }
      ],
      "name": "votes",
      "outputs": [
        {
          "components": [
            {
              "internalType": "address",
              "name": "ownerWallet",
              "type": "address"
            },
            {
              "internalType": "uint256",
              "name": "assetValue",
              "type": "uint256"
            }
          ],
          "internalType": "struct Voting.Asset",
          "name": "asset",
          "type": "tuple"
        },
        {
          "internalType": "uint256",
          "name": "totalVotes",
          "type": "uint256"
        },
        {
          "internalType": "uint256",
          "name": "positiveVotes",
          "type": "uint256"
        },
        {
          "internalType": "address",
          "name": "insuranceContract",
          "type": "address"
        },
        {
          "internalType": "bool",
          "name": "votingCompleted",
          "type": "bool"
        }
      ],
      "stateMutability": "view",
      "type": "function"
    },
    {
      "inputs": [
        {
          "internalType": "uint256",
          "name": "",
          "type": "uint256"
        }
      ],
      "name": "votingQueue",
      "outputs": [
        {
          "internalType": "address",
          "name": "userWallet",
          "type": "address"
        },
        {
          "internalType": "uint256",
          "name": "assetValue",
          "type": "uint256"
        }
      ],
      "stateMutability": "view",
      "type": "function"
    }
  ],
  "bytecode": "0x60806040523480156200001157600080fd5b50604051620025e1380380620025e183398181016040528101906200003791906200017d565b6001600081905550816002819055508060038190555082600860006101000a81548173ffffffffffffffffffffffffffffffffffffffff021916908373ffffffffffffffffffffffffffffffffffffffff16021790555082600960006101000a81548173ffffffffffffffffffffffffffffffffffffffff021916908373ffffffffffffffffffffffffffffffffffffffff160217905550505050620001d9565b600080fd5b600073ffffffffffffffffffffffffffffffffffffffff82169050919050565b60006200010a82620000dd565b9050919050565b6200011c81620000fd565b81146200012857600080fd5b50565b6000815190506200013c8162000111565b92915050565b6000819050919050565b620001578162000142565b81146200016357600080fd5b50565b60008151905062000177816200014c565b92915050565b600080600060608486031215620001995762000198620000d8565b5b6000620001a9868287016200012b565b9350506020620001bc8682870162000166565b9250506040620001cf8682870162000166565b9150509250925092565b6123f880620001e96000396000f3fe60806040523480156200001157600080fd5b5060043610620001005760003560e01c80637d0eef611162000099578063d4166763116200006f578063d41667631462000281578063da2b4c1e14620002a3578063ddb4979914620002c5578063fbe43e8514620002fc5762000100565b80637d0eef61146200021d57806389c532e1146200023f5780639410f97514620002615762000100565b80634385963211620000db5780634385963214620001695780634b9f5c98146200019f5780635df8133014620001bf5780636dc8d34914620001f95762000100565b806307659766146200010557806308e8c2901462000127578063206dd2d01462000147575b600080fd5b6200010f6200031e565b6040516200011e9190620011ef565b60405180910390f35b6200014560048036038101906200013f919062001276565b62000331565b005b6200015162000375565b604051620001609190620012b9565b60405180910390f35b62000187600480360381019062000181919062001311565b6200039b565b604051620001969190620011ef565b60405180910390f35b620001bd6004803603810190620001b7919062001389565b620003ca565b005b620001dd6004803603810190620001d79190620013bb565b62000a23565b604051620001f095949392919062001453565b60405180910390f35b6200020362000b01565b6040516200021493929190620014b0565b60405180910390f35b6200022762000c33565b604051620002369190620014ed565b60405180910390f35b6200024962000c39565b604051620002589190620012b9565b60405180910390f35b6200027f60048036038101906200027991906200150a565b62000c5f565b005b6200028b62000dce565b6040516200029a9190620014ed565b60405180910390f35b620002ad62000dd4565b604051620002bc9190620014ed565b60405180910390f35b620002e36004803603810190620002dd9190620013bb565b62000dda565b604051620002f392919062001551565b60405180910390f35b6200030662000e2f565b604051620003159190620015e9565b60405180910390f35b600560009054906101000a900460ff1681565b80600760006101000a81548173ffffffffffffffffffffffffffffffffffffffff021916908373ffffffffffffffffffffffffffffffffffffffff16021790555050565b600860009054906101000a900473ffffffffffffffffffffffffffffffffffffffff1681565b60016020528160005260406000206020528060005260406000206000915091509054906101000a900460ff1681565b600560009054906101000a900460ff166200041c576040517f08c379a0000000000000000000000000000000000000000000000000000000008152600401620004139062001667565b60405180910390fd5b600160008054815260200190815260200160002060003373ffffffffffffffffffffffffffffffffffffffff1673ffffffffffffffffffffffffffffffffffffffff16815260200190815260200160002060009054906101000a900460ff1615620004be576040517f08c379a0000000000000000000000000000000000000000000000000000000008152600401620004b590620016d9565b60405180910390fd5b600354600960009054906101000a900473ffffffffffffffffffffffffffffffffffffffff1673ffffffffffffffffffffffffffffffffffffffff166370a08231336040518263ffffffff1660e01b81526004016200051e9190620012b9565b602060405180830381865afa1580156200053c573d6000803e3d6000fd5b505050506040513d601f19601f8201168201806040525081019062000562919062001712565b1015620005a6576040517f08c379a00000000000000000000000000000000000000000000000000000000081526004016200059d90620017ba565b60405180910390fd5b600960009054906101000a900473ffffffffffffffffffffffffffffffffffffffff1673ffffffffffffffffffffffffffffffffffffffff166323b872dd33306003546040518463ffffffff1660e01b81526004016200060993929190620017dc565b6020604051808303816000875af115801562000629573d6000803e3d6000fd5b505050506040513d601f19601f820116820180604052508101906200064f919062001830565b506000600160048054905062000666919062001891565b9050600060048281548110620006815762000680620018cc565b5b906000526020600020906005020190506001816002016000828254620006a89190620018fb565b92505081905550600254816003015411158015620006c35750825b1562000751576001816003016000828254620006e09190620018fb565b9250508190555060018060008054815260200190815260200160002060003373ffffffffffffffffffffffffffffffffffffffff1673ffffffffffffffffffffffffffffffffffffffff16815260200190815260200160002060006101000a81548160ff0219169083151502179055505b60025481600301541180156200077657508060040160149054906101000a900460ff16155b1562000a1e5760018160040160146101000a81548160ff02191690831515021790555060008160000160000160009054906101000a900473ffffffffffffffffffffffffffffffffffffffff1690506000826000016001015490508181600760009054906101000a900473ffffffffffffffffffffffffffffffffffffffff16600860009054906101000a900473ffffffffffffffffffffffffffffffffffffffff16604051620008279062001194565b62000836949392919062001936565b604051809103906000f08015801562000853573d6000803e3d6000fd5b508360040160006101000a81548173ffffffffffffffffffffffffffffffffffffffff021916908373ffffffffffffffffffffffffffffffffffffffff160217905550600960009054906101000a900473ffffffffffffffffffffffffffffffffffffffff1673ffffffffffffffffffffffffffffffffffffffff166323b872dd308560040160009054906101000a900473ffffffffffffffffffffffffffffffffffffffff166003546040518463ffffffff1660e01b81526004016200091d93929190620017dc565b6020604051808303816000875af11580156200093d573d6000803e3d6000fd5b505050506040513d601f19601f8201168201806040525081019062000963919062001830565b506000600560006101000a81548160ff02191690831515021790555060018060008054815260200190815260200160002060003373ffffffffffffffffffffffffffffffffffffffff1673ffffffffffffffffffffffffffffffffffffffff16815260200190815260200160002060006101000a81548160ff021916908315150217905550600080815480929190620009fc9062001983565b91905055506000600680549050111562000a1b5762000a1a62000e55565b5b50505b505050565b6004818154811062000a3457600080fd5b9060005260206000209060050201600091509050806000016040518060400160405290816000820160009054906101000a900473ffffffffffffffffffffffffffffffffffffffff1673ffffffffffffffffffffffffffffffffffffffff1673ffffffffffffffffffffffffffffffffffffffff168152602001600182015481525050908060020154908060030154908060040160009054906101000a900473ffffffffffffffffffffffffffffffffffffffff16908060040160149054906101000a900460ff16905085565b62000b0b620011a2565b600080600560009054906101000a900460ff1662000b60576040517f08c379a000000000000000000000000000000000000000000000000000000000815260040162000b579062001667565b60405180910390fd5b60006004600160048054905062000b78919062001891565b8154811062000b8c5762000b8b620018cc565b5b906000526020600020906005020190506000816000016040518060400160405290816000820160009054906101000a900473ffffffffffffffffffffffffffffffffffffffff1673ffffffffffffffffffffffffffffffffffffffff1673ffffffffffffffffffffffffffffffffffffffff168152602001600182015481525050905060008260020154905060008360030154905082828296509650965050505050909192565b60025481565b600760009054906101000a900473ffffffffffffffffffffffffffffffffffffffff1681565b600160008054815260200190815260200160002060003373ffffffffffffffffffffffffffffffffffffffff1673ffffffffffffffffffffffffffffffffffffffff16815260200190815260200160002060009054906101000a900460ff161562000d01576040517f08c379a000000000000000000000000000000000000000000000000000000000815260040162000cf890620016d9565b60405180910390fd5b600660405180604001604052808473ffffffffffffffffffffffffffffffffffffffff16815260200183815250908060018154018082558091505060019003906000526020600020906002020160009091909190915060008201518160000160006101000a81548173ffffffffffffffffffffffffffffffffffffffff021916908373ffffffffffffffffffffffffffffffffffffffff160217905550602082015181600101555050600560009054906101000a900460ff1662000dca5762000dc962000e55565b5b5050565b60005481565b60035481565b6006818154811062000deb57600080fd5b90600052602060002090600202016000915090508060000160009054906101000a900473ffffffffffffffffffffffffffffffffffffffff16908060010154905082565b600960009054906101000a900473ffffffffffffffffffffffffffffffffffffffff1681565b600560009054906101000a900460ff161562000ea8576040517f08c379a000000000000000000000000000000000000000000000000000000000815260040162000e9f9062001a6c565b60405180910390fd5b60006006805490501162000ef3576040517f08c379a000000000000000000000000000000000000000000000000000000000815260040162000eea9062001ade565b60405180910390fd5b6000600660008154811062000f0d5762000f0c620018cc565b5b9060005260206000209060020201905062000f518160000160009054906101000a900473ffffffffffffffffffffffffffffffffffffffff16826001015462000fb1565b600680548062000f665762000f6562001b00565b5b6001900381819060005260206000209060020201600080820160006101000a81549073ffffffffffffffffffffffffffffffffffffffff021916905560018201600090555050905550565b600560009054906101000a900460ff161562001004576040517f08c379a000000000000000000000000000000000000000000000000000000000815260040162000ffb9062001b7f565b60405180910390fd5b60046040518060a0016040528060405180604001604052808673ffffffffffffffffffffffffffffffffffffffff1681526020018581525081526020016000815260200160008152602001600073ffffffffffffffffffffffffffffffffffffffff16815260200160001515815250908060018154018082558091505060019003906000526020600020906005020160009091909190915060008201518160000160008201518160000160006101000a81548173ffffffffffffffffffffffffffffffffffffffff021916908373ffffffffffffffffffffffffffffffffffffffff160217905550602082015181600101555050602082015181600201556040820151816003015560608201518160040160006101000a81548173ffffffffffffffffffffffffffffffffffffffff021916908373ffffffffffffffffffffffffffffffffffffffff16021790555060808201518160040160146101000a81548160ff02191690831515021790555050506001600560006101000a81548160ff0219169083151502179055505050565b6108218062001ba283390190565b6040518060400160405280600073ffffffffffffffffffffffffffffffffffffffff168152602001600081525090565b60008115159050919050565b620011e981620011d2565b82525050565b6000602082019050620012066000830184620011de565b92915050565b600080fd5b600073ffffffffffffffffffffffffffffffffffffffff82169050919050565b60006200123e8262001211565b9050919050565b620012508162001231565b81146200125c57600080fd5b50565b600081359050620012708162001245565b92915050565b6000602082840312156200128f576200128e6200120c565b5b60006200129f848285016200125f565b91505092915050565b620012b38162001231565b82525050565b6000602082019050620012d06000830184620012a8565b92915050565b6000819050919050565b620012eb81620012d6565b8114620012f757600080fd5b50565b6000813590506200130b81620012e0565b92915050565b600080604083850312156200132b576200132a6200120c565b5b60006200133b85828601620012fa565b92505060206200134e858286016200125f565b9150509250929050565b6200136381620011d2565b81146200136f57600080fd5b50565b600081359050620013838162001358565b92915050565b600060208284031215620013a257620013a16200120c565b5b6000620013b28482850162001372565b91505092915050565b600060208284031215620013d457620013d36200120c565b5b6000620013e484828501620012fa565b91505092915050565b620013f88162001231565b82525050565b6200140981620012d6565b82525050565b604082016000820151620014276000850182620013ed565b5060208201516200143c6020850182620013fe565b50505050565b6200144d81620012d6565b82525050565b600060c0820190506200146a60008301886200140f565b62001479604083018762001442565b62001488606083018662001442565b620014976080830185620012a8565b620014a660a0830184620011de565b9695505050505050565b6000608082019050620014c760008301866200140f565b620014d6604083018562001442565b620014e5606083018462001442565b949350505050565b600060208201905062001504600083018462001442565b92915050565b600080604083850312156200152457620015236200120c565b5b600062001534858286016200125f565b92505060206200154785828601620012fa565b9150509250929050565b6000604082019050620015686000830185620012a8565b62001577602083018462001442565b9392505050565b6000819050919050565b6000620015a9620015a36200159d8462001211565b6200157e565b62001211565b9050919050565b6000620015bd8262001588565b9050919050565b6000620015d182620015b0565b9050919050565b620015e381620015c4565b82525050565b6000602082019050620016006000830184620015d8565b92915050565b600082825260208201905092915050565b7f5468657265206973206e6f2061637469766520766f74652e0000000000000000600082015250565b60006200164f60188362001606565b91506200165c8262001617565b602082019050919050565b60006020820190508181036000830152620016828162001640565b9050919050565b7f596f75206861766520616c726561647920766f7465642e000000000000000000600082015250565b6000620016c160178362001606565b9150620016ce8262001689565b602082019050919050565b60006020820190508181036000830152620016f481620016b2565b9050919050565b6000815190506200170c81620012e0565b92915050565b6000602082840312156200172b576200172a6200120c565b5b60006200173b84828501620016fb565b91505092915050565b7f496e73756666696369656e742073744e4541522062616c616e636520666f722060008201527f766f74696e672e00000000000000000000000000000000000000000000000000602082015250565b6000620017a260278362001606565b9150620017af8262001744565b604082019050919050565b60006020820190508181036000830152620017d58162001793565b9050919050565b6000606082019050620017f36000830186620012a8565b620018026020830185620012a8565b62001811604083018462001442565b949350505050565b6000815190506200182a8162001358565b92915050565b6000602082840312156200184957620018486200120c565b5b6000620018598482850162001819565b91505092915050565b7f4e487b7100000000000000000000000000000000000000000000000000000000600052601160045260246000fd5b60006200189e82620012d6565b9150620018ab83620012d6565b9250828203905081811115620018c657620018c562001862565b5b92915050565b7f4e487b7100000000000000000000000000000000000000000000000000000000600052603260045260246000fd5b60006200190882620012d6565b91506200191583620012d6565b925082820190508082111562001930576200192f62001862565b5b92915050565b60006080820190506200194d6000830187620012a8565b6200195c602083018662001442565b6200196b6040830185620012a8565b6200197a6060830184620012a8565b95945050505050565b60006200199082620012d6565b91507fffffffffffffffffffffffffffffffffffffffffffffffffffffffffffffffff8203620019c557620019c462001862565b5b600182019050919050565b7f546865726520697320616e2061637469766520766f74652e20506c656173652060008201527f7761697420666f72207468652063757272656e7420766f746520746f20636f6d60208201527f706c6574652e0000000000000000000000000000000000000000000000000000604082015250565b600062001a5460468362001606565b915062001a6182620019d0565b606082019050919050565b6000602082019050818103600083015262001a878162001a45565b9050919050565b7f566f74696e6720717565756520697320656d7074792e00000000000000000000600082015250565b600062001ac660168362001606565b915062001ad38262001a8e565b602082019050919050565b6000602082019050818103600083015262001af98162001ab7565b9050919050565b7f4e487b7100000000000000000000000000000000000000000000000000000000600052603160045260246000fd5b7f546865726520697320616e2061637469766520766f74652e0000000000000000600082015250565b600062001b6760188362001606565b915062001b748262001b2f565b602082019050919050565b6000602082019050818103600083015262001b9a8162001b58565b905091905056fe608060405234801561001057600080fd5b50604051610821380380610821833981810160405281019061003291906101df565b83600160006101000a81548173ffffffffffffffffffffffffffffffffffffffff021916908373ffffffffffffffffffffffffffffffffffffffff1602179055508260038190555081600260006101000a81548173ffffffffffffffffffffffffffffffffffffffff021916908373ffffffffffffffffffffffffffffffffffffffff16021790555080600460006101000a81548173ffffffffffffffffffffffffffffffffffffffff021916908373ffffffffffffffffffffffffffffffffffffffff16021790555080600560006101000a81548173ffffffffffffffffffffffffffffffffffffffff021916908373ffffffffffffffffffffffffffffffffffffffff16021790555050505050610246565b600080fd5b600073ffffffffffffffffffffffffffffffffffffffff82169050919050565b60006101768261014b565b9050919050565b6101868161016b565b811461019157600080fd5b50565b6000815190506101a38161017d565b92915050565b6000819050919050565b6101bc816101a9565b81146101c757600080fd5b50565b6000815190506101d9816101b3565b92915050565b600080600080608085870312156101f9576101f8610146565b5b600061020787828801610194565b9450506020610218878288016101ca565b935050604061022987828801610194565b925050606061023a87828801610194565b91505092959194509250565b6105cc806102556000396000f3fe608060405234801561001057600080fd5b50600436106100625760003560e01c8063206dd2d014610067578063255be390146100855780638da5cb5b146100a35780639f7c73e9146100c1578063a71891c3146100dd578063fbe43e85146100fb575b600080fd5b61006f610119565b60405161007c9190610330565b60405180910390f35b61008d61013f565b60405161009a9190610330565b60405180910390f35b6100ab610165565b6040516100b89190610330565b60405180910390f35b6100db60048036038101906100d6919061037c565b61018b565b005b6100e56102c3565b6040516100f291906103c2565b60405180910390f35b6101036102c9565b604051610110919061043c565b60405180910390f35b600460009054906101000a900473ffffffffffffffffffffffffffffffffffffffff1681565b600260009054906101000a900473ffffffffffffffffffffffffffffffffffffffff1681565b600160009054906101000a900473ffffffffffffffffffffffffffffffffffffffff1681565b600260009054906101000a900473ffffffffffffffffffffffffffffffffffffffff1673ffffffffffffffffffffffffffffffffffffffff163373ffffffffffffffffffffffffffffffffffffffff161461021b576040517f08c379a0000000000000000000000000000000000000000000000000000000008152600401610212906104da565b60405180910390fd5b600560009054906101000a900473ffffffffffffffffffffffffffffffffffffffff1673ffffffffffffffffffffffffffffffffffffffff166323b872dd30836003546040518463ffffffff1660e01b815260040161027c939291906104fa565b6020604051808303816000875af115801561029b573d6000803e3d6000fd5b505050506040513d601f19601f820116820180604052508101906102bf9190610569565b5050565b60035481565b600560009054906101000a900473ffffffffffffffffffffffffffffffffffffffff1681565b600073ffffffffffffffffffffffffffffffffffffffff82169050919050565b600061031a826102ef565b9050919050565b61032a8161030f565b82525050565b60006020820190506103456000830184610321565b92915050565b600080fd5b6103598161030f565b811461036457600080fd5b50565b60008135905061037681610350565b92915050565b6000602082840312156103925761039161034b565b5b60006103a084828501610367565b91505092915050565b6000819050919050565b6103bc816103a9565b82525050565b60006020820190506103d760008301846103b3565b92915050565b6000819050919050565b60006104026103fd6103f8846102ef565b6103dd565b6102ef565b9050919050565b6000610414826103e7565b9050919050565b600061042682610409565b9050919050565b6104368161041b565b82525050565b6000602082019050610451600083018461042d565b92915050565b600082825260208201905092915050565b7f4f6e6c792072657061796d656e7420636f6e74726163742063616e2063616c6c60008201527f20746869732066756e6374696f6e000000000000000000000000000000000000602082015250565b60006104c4602e83610457565b91506104cf82610468565b604082019050919050565b600060208201905081810360008301526104f3816104b7565b9050919050565b600060608201905061050f6000830186610321565b61051c6020830185610321565b61052960408301846103b3565b949350505050565b60008115159050919050565b61054681610531565b811461055157600080fd5b50565b6000815190506105638161053d565b92915050565b60006020828403121561057f5761057e61034b565b5b600061058d84828501610554565b9150509291505056fea264697066735822122092be1afba3a581d49dec459216b8febec170ea1425b9da8cba5b7cb7cc27a7b564736f6c63430008130033a2646970667358221220b339e43897ed657a33e275a5286523647ae6b9bb0cbc42baa586bba07e661d7664736f6c63430008130033",
  "linkReferences": {},
  "deployedLinkReferences": {}
}